:060000000A128A11122809
:10000800FE00030EF1000408F2000A08F300831250
:1000180003137F08F4000A128A112C2D0A128A1180
:1000280015280A128A11FB230A128A11D5000A120E
:100038008A11FC230A128A11D6000A128A11FD239A
:100048000A128A11D7000A128A11FE230A128A118B
:10005800D80083132030840047300A128A153026CE
:10006800F501F601F701F80183010A128A11FE2948
:10007800831203132F08C8002E08C700AE01AF0172
:1000880075037604031D57284808803AFF008B3013
:100098007F02031D5128B8304702031857280A1257
:1000A8008A15A426080075037604031D7728831291
:1000B80003134808803AFF008B307F02031D66282F
:1000C800B8304702031C7728831203135608F6003A
:1000D8005508F500F701F801A801A9010130A400AD
:1000E8000030A5000800023075067604031981283F
:1000F800033075067604031D962877087804031DD7
:100108009628831203134808803AFF008B307F0239
:10011800031D9028B8304702031896280A128A153A
:10012800432608000230750676040319A028033018
:1001380075067604031DB62877087804031DB628CB
:10014800831203134808803AFF008B307F02031D97
:10015800AF28B8304702031CB6280130F70000303A
:10016800F8000800023075067604031DD0287703CE
:100178007804031DD028831203134808803AFF002F
:100188008B307F02031DCA28B83047020318D028D5
:100198000A128A1579270800033075067604031DAC
:1001A800EA2877037804031DEA2883120313480812
:1001B800803AFF008B307F02031DE428B8304702E5
:1001C8000318EA280A128A15BE26080002307506A6
:1001D80076040319F428033075067604031D0829EC
:1001E80077037804031D0829831203134808803A0B
:1001F800FF008B307F02031D0329B8304702031C20
:100208000829F701F8010800043075067604031D73
:100218001E29831203134808803AFF008B307F029F
:10022800031D1829B830470203181E290A128A1517
:1002380051260800043075067604031D0800831251
:1002480003134808803AFF008B307F02031D2E29D4
:10025800B8304702031C08000A128A117826F501F3
:10026800F601013083120313A4000030A500080032
:10027800831203133108C9003008C800B001B10166
:1002880075087604031D62294908803AFF008B30FF
:100298007F02031D5129B8304802031C622901302E
:1002A800F5000030F600F701F80183120313A801E6
:1002B800A9010130A4000030A500080075087604E3
:1002C80003198029831203134908803AFF008B30F1
:1002D8007F02031D7129B8304802031C8029F501EB
:1002E800F601F701F80183120313A801A9010130EF
:1002F800A4000030A500080075037604031D9529A5
:10030800831203134908803AFF008B307F02031DD4
:100318008F29B8304802031895290A128A158A26A7
:10032800080002307506760403199F290330750604
:100338007604031DB42977087804031DB4298312B1
:1003480003134908803AFF008B307F02031DAE2952
:10035800B83048020318B4290A128A15432608003F
:10036800023075067604031DCE2977037804031D31
:10037800CE29831203134908803AFF008B307F028D
:10038800031DC829B83048020318CE290A128A1159
:10039800AF230800033075067604031DE8297703A8
:1003A8007804031DE829831203134908803AFF00E3
:1003B8008B307F02031DE229B83048020318E82970
:1003C8000A128A15D1270800043075067604031D21
:1003D8000800831203134908803AFF008B307F021C
:1003E800031DF829B8304802031808000A128A15B4
:1003F8005126080003308316031386008312031363
:10040800860183160313870183120313870183165A
:1004180003138801831203138801831603138901C8
:100428008312031389018B170B178B16831603137B
:10043800811201128111011581100110703083128F
:1004480003138100BC01BD01BA01BB01B801B901A8
:100458003030D4005408BE003030D4005408BF00F7
:100468003A30D4005408C0003030D4005408C100D9
:100478003030D4005408C2003A30D4005408C300C5
:100488003030D4005408C4003030D4005408C500BB
:10049800C6010A128A11A8250A128A110A128A1597
:1004A800A5270A128A1183120313C70100300A1202
:1004B8008A1571260A128A11831203133708803AA3
:1004C800FF0081307F02031D6B2AF4303602031CC3
:1004D800742A013083120313A6000030A700782A7B
:1004E80083120313A601A7010A128A1174230A12A0
:1004F8008A1183120313061C852A0130AC000030D0
:10050800AD00861C8B2A0130AA000030AB003308EE
:100518003906031D912A32083806031D9D2A35081D
:100528003B06031D992A34083A06031D9D2A061620
:100538009E2A06120618AD2A2C082D040319AD2A86
:100548000A128A113C210A128A1183120313AC0180
:10055800AD018618602A2A082B040319602A0A129A
:100568008A113C200A128A1183120313AA01AB01D3
:10057800602A02308312031355065604031DED2A20
:1005880026032704031DED2AC70100300A128A1525
:1005980071260A128A11673083120313C90080304A
:1005A800CA000A128A1500270A128A118312031335
:1005B800C70101300A128A1571260A128A115630AB
:1005C80083120313C9008030CA000A128A15002753
:1005D800080003308312031355065604031D1D2B10
:1005E80026032704031D1D2BC70100300A128A1594
:1005F80071260A128A11453083120313C90080300C
:10060800CA000A128A1500270A128A1183120313D4
:10061800C70101300A128A1571260A128A1156304A
:1006280083120313C9008030CA000A128A150027F2
:10063800080004308312031355065604031D4D2B7E
:1006480026032704031D4D2BC70100300A128A1503
:1006580071260A128A11783083120313C900803078
:10066800CA000A128A1500270A128A118312031374
:10067800C70101300A128A1571260A128A1101303F
:1006880083120313C9008030CA000A128A15002792
:10069800080083120313C70100300A128A15712655
:1006A8000A128A11783083120313C9008030CA00F5
:1006B8000A128A1500270A128A1183120313C70126
:1006C80001300A128A1571260A128A1156308312CD
:1006D8000313C9008030CA000A128A1500270800CF
:1006E8008312031324032504031D982B0A128A1569
:1006F800A5270A128A1183120313A401A501982BB6
:100708000A128A11982408000A128A11BD220800C8
:100718000A128A154E2708000A128A15DE260800D2
:100728000A128A111C2708007608003A03199D2B23
:10073800AE2B7508003A0319842B013A0319882B4C
:10074800033A03198C2B013A0319902B073A031922
:10075800942BAE2B08008312031328032904031DCE
:10076800D72B0130B8070318B90A0030B907390880
:10077800803AC7005808803A4702031DC52B57081E
:100788003802031C08008312031322082304031DE4
:10079800D22B0130A2000030A300D42BA201A30168
:1007A800B801B901080028082904031D0800013010
:1007B800BA070318BB0A0030BB073C303A063B04B3
:1007C800031D0800BA01BB01080083120313C80007
:1007D80009144808880089143C3083120313C700A1
:1007E800C70BF42B0000831203138910080002348E
:0607F80000341834003447
:10080000FF1B0A2C83137F1883170008840A03191F
:10081000FF0A080004308A000408840A82070034B2
:100820002034203420342034203420342034203428
:100830002034203420342034203420342034203418
:100840000034323434342034203420342034203402
:1008500020342034203420342034203420342034F8
:1008600020340034203420342034203420343134F7
:1008700032342034203420342034203420342034C6
:1008800020342034003432343434203420342034C2
:100890003134323420342034203420342034203495
:1008A000203420342034003448346F3472346134BE
:1008B000723469346F3420342034203420342034AE
:1008C000203420342034203400344D346F346434E8
:1008D0006F34203445347834693462346934633495
:1008E00061346F34203420342034003420342034F8
:1008F0002034203420342034203420342034413437
:100900006C34613472346D346534203400344834CE
:100910006F3472346134723469346F34203420346B
:1009200041346C34613472346D34653420340034B5
:100930000A3083120313C7000030C8003908CA0008
:100940003808C9000A128A111D260A128A11831258
:1009500003134708303ED0005008BE000A30C700DD
:100960000030C8003908CA003808C9000A128A11C4
:10097000CF260A128A11831203134708303ED00093
:100980005008BF003A30D0005008C0000A30C700FD
:100990000030C8003B08CA003A08C9000A128A1190
:1009A0001D260A128A11831203134708303ED00015
:1009B0005008C1000A30C7000030C8003B08CA0018
:1009C0003A08C9000A128A11CF260A128A11831224
:1009D00003134708303ED0005008C2003A30D00020
:1009E0005008C3000A30C7000030C8003D08CA00E4
:1009F0003C08C9000A128A111D260A128A118312A4
:100A000003134708303ED0005008C4000A30C70026
:100A10000030C8003D08CA003C08C9000A128A110B
:100A2000CF260A128A11831203134708303ED000E2
:100A30005008C500C601C70100300A128A15712688
:100A40000A128A113E3083120313C9000030CA0013
:100A50000A128A1500270800703081000130B6079D
:100A60000318B70A0030B7070B110A128A15382687
:100A70000A128A110A128A11F3270A128A118312A2
:100A800003133708803AFF0083307F02031D4A2D8D
:100A9000E8303602031C9B2D83120313B601B70105
:100AA0000130BC070318BD0A0030BD073D08803A7D
:100AB000FF0080307F02031D5F2D3C303C02031C91
:100AC0009B2D83120313BC01BD010130BA0703182B
:100AD000BB0A0030BB073B08803AFF0080307F0232
:100AE000031D742D3C303A02031C9B2D831203130B
:100AF000BA01BB010130B8070318B90A0030B907C1
:100B00003908803AF0005808803A7002031D8A2D97
:100B100057083802031C9B2D831203132208230459
:100B2000031D972D0130A2000030A300992DA201D2
:100B3000A301B801B901740883120313FF007308FD
:100B40008A0072088400710E8300FE0E7E0E09007A
:100B5000831603139F111F159F101F105A30831205
:100B60000313CA00C230C900C90BB42DCA0BB42D7F
:100B7000000030300A128A155F260A128A111830D6
:100B800083120313CA00EE30C900C90BC52DCA0B6E
:100B9000C52D000030300A128A155F260A128A110C
:100BA000983083120313C900C90BD42D00003030D4
:100BB0000A128A155F260A128A113C308312031327
:100BC000C900C90BE12D000038300A128A155F26D2
:100BD0000A128A113C3083120313C900C90BEE2D8F
:100BE000000001300A128A155F260A128A110C30A1
:100BF00083120313CA00F630C900C90BFD2DCA0BBE
:100C0000FD2D00000C300A128A155F260A128A1187
:100C10003C3083120313C900C90B0C2E00000630B0
:100C20000A128A155F260A128A113C3083120313B6
:100C3000C900C90B192E0000080083120313CD014F
:100C4000C81F292EC709C809C70A0319C80ACD0138
:100C5000CD0ACA1F342EC909CA09C90A0319CA0A0A
:100C60000130CB004B08CD06CE01CF014708480428
:100C700003196B2ECC01CC0AC81B4A2E013003107D
:100C8000C70DC80DFF3E031D3F2E0130CB004B08A2
:100C9000CC073C2E01300310CE0DCF0DFF3E031DBF
:100CA0004B2E48084A02031D572E47084902031CD1
:100CB000602E4708C9024808031CCA03CA024E1422
:100CC00001300310C80CC70CFF3E031D612E01301C
:100CD000CC02031D4A2E4D080319732ECE09CF09ED
:100CE000CE0A0319CF0A4F08C8004E08C7000800F3
:100CF0008312031320082104031D972E22032304CB
:100D0000031D922E38080C3EB80039080318013E26
:100D1000003EB90032080C3EB20033080318013E11
:100D2000003EB3001830D7000030D80008000C3067
:100D3000D7000030D8003908803AFF0080307F02A9
:100D4000031DA42E0C303802031CB52E831203138E
:100D50003808F43EB80039080318013EFF3EB900D8
:100D60000130A2000030A300B92E83120313A201A8
:100D7000A3013308803AFF0080307F02031DC22E9A
:100D80000C303202031C0800831203133208F43EB5
:100D9000B20033080318013EFF3EB300080083127F
:100DA0000313CD01CA1FDB2EC909CA09C90A0319D9
:100DB000CA0ACD01CD0AC81FE22EC709C809C70A51
:100DC0000319C80A4708480403190F2FCC01CC0A9D
:100DD000C81BF62E01300310C70DC80DFF3E031DC2
:100DE000EB2E0130CB004B08CC07E82E48084A0216
:100DF000031DFC2E47084902031C042F4708C902A3
:100E00004808031CCA03CA0201300310C80CC70CEF
:100E1000FF3E031D052F0130CC02031DF62E4D08A9
:100E20000319172FC909CA09C90A0319CA0A4A08A6
:100E3000C8004908C70008008312031320082104D2
:100E4000031D372F26032704031D372FC70100304A
:100E50000A128A1571260A128A112330831203138B
:100E6000C9008030CA000A128A15002708008312C0
:100E7000031320032104031D522F26032704031DFF
:100E8000522FC70100300A128A1571260A128A11E0
:100E9000123083120313C9008030CA000A128A1567
:100EA0000027080083120313C70100300A128A15B5
:100EB00071260A128A11343083120313C90080305C
:100EC000CA000A128A150027080083120313280893
:100ED0002904031D782F26032704031D782F2030B3
:100EE000D0005008C1002030D0005008C2000800D7
:100EF000033075067604031D812F3508D2003408AF
:100F0000842F3B08D2003A08D1000A30C7000030D5
:100F1000C8005208CA005108C9000A128A111D26C9
:100F20000A128A11831203134708303ED00050087A
:100F3000C1000A30C7000030C8005208CA0051087A
:100F4000C9000A128A11CF26831203134708303EC4
:100F5000D0005008C200080083120313280329049C
:100F6000031DBF2F26032704031DBF2F2030D000F1
:100F70005008BE002030D0005008BF0008000330E9
:100F800075067604031DC82F3308D2003208CB2F14
:100F90003908D2003808D1000A30C7000030C80034
:100FA0005208CA005108C9000A128A111D260A12E5
:100FB0008A11831203134708303ED0005008BE0048
:100FC0000A30C7000030C8005208CA005108C900E2
:100FD0000A128A11CF26831203134708303ED0002D
:100FE0005008BF00080083120313861C080001305C
:0C0FF000AE070318AF0A0030AF0708007E
:101C600064008001840A0406031900340406312E3E
:101C700083120313061C08000130B0070318B10AD1
:101C80000030B10708008312031328082904031D3C
:101C90004E2E0130A8000030A9000800A801A901BB
:101CA00008008312031320082104031D5C2E013059
:101CB000A0000030A1000800A001A10108008312CB
:101CC0000313C80009104808880089143C308312A7
:101CD0000313C700C70B6A2E000083120313891079
:101CE000080083120313C90009104908031D7B2E45
:101CF0004708803E7D2E4708C03E880089143C304E
:101D000083120313C800C80B832E00008312031331
:101D100089100800013083120313D5070318D60A6F
:101D20000030D6075608803AFF0080307F02031D3E
:101D30009B2E05305502031C08000230831203134A
:101D4000D5000030D6000800FF3083120313D507FA
:101D50000318D60AFF30D6075608803AFF008030B5
:101D60007F02031DB52E023055020318080004300F
:101D700083120313D5000030D6000800831203132A
:101D800028032904031DCF2E320833040319080049
:101D9000FF30B2070318B30AFF30B3070800280862
:101DA0002904031D08003408350403190800FF3016
:101DB000B4070318B50AFF30B50708000A128A11E4
:101DC000AC270A128A150A128A1165270A128A1587
:101DD0003A3083120313D3005308C000C301C70174
:101DE00000300A128A1571260A128A153E308312B3
:101DF0000313C9000030CA000A128A150027080020
:101E0000831203134A08FF00490884000A128A114A
:101E100000240A128A15003A0319080083120313DA
:101E20004A08FF00490884000A128A1100240A1295
:101E30008A150A128A11E9230A128A1501308312BF
:101E40000313C9070318CA0A002F0A3083120313A9
:101E5000C7000030C8003D08CA003C08C9000A128B
:101E60008A111D260A128A15831203134708303E71
:101E7000D0005008C4000A30C7000030C8003D0838
:101E8000CA003C08C9000A128A11CF268312031324
:101E90004708303ED0005008C50008000A128A11D9
:101EA000AC270A128A150A128A1165270A128A15A6
:101EB0000A128A1525270A128A153A30831203134B
:101EC000D3005308C0003A30D3005308C300C60102
:101ED000C70100300A128A1571260A128A153E308F
:101EE00083120313C9000030CA000A128A150027A2
:101EF00008008312031328032904031D962F3808B2
:101F00003904031D8F2F22082304031D8C2F013059
:101F1000A2000030A3000800A201A3010800FF30C6
:101F2000B8070318B90AFF30B907080028082904C0
:101F3000031D08003A083B0403190800FF30BA07E4
:101F40000318BB0AFF30BB07080001300A128A15CC
:101F50005F260A128A150C3083120313CA00F6306A
:101F6000C900C90BB12FCA0BB12F00000C300A12E7
:101F70008A155F260A128A153C3083120313C900A2
:101F8000C90BC02F000006300A128A155F260A12FC
:101F90008A153C3083120313C900C90BCD2F0000F2
:101FA00008008312031328032904031DEE2F0130B8
:101FB000B2070318B30A0030B3073308803AC700EA
:101FC0005808803A4702031DE72F57083202031CC6
:101FD000080083120313B201B30108002808290482
:101FE000031D08000130B4070318B50A0030B50717
:101FF0003C3034063504031D0800B401B501080067
:02400E00323F3F
:00000001FF
