:020000007F2956
:10000800FF00030E8301B6000A08B5008A017008D4
:10001800A00005308100AE0A0319AF0A0B112F08A2
:10002800033A031D1928E8302E06031D3828AE01AF
:10003800AF01B20A32083C3A031D3828B201B30AAC
:1000480033083C3A031D3828B201B301B40A340816
:10005800183A031D3828B201B301B401B10A3108B6
:10006800073A031D3828B1012008F00035088A0036
:0A007800360E8300FF0E7F0E090014
:0E008200213083120313FD00FD0B45280800FA
:0600900000000000080062
:100096000F3083120313FC004730FD00FD0B51287F
:0A00A600FC0B5128000000000800C8
:1000B00083120313D91B5E2886115F288615591BEE
:1000C0006328061164280615D91A6828861069283D
:1000D0008614591A6D2806106E28061430187228D6
:1000E000061673280612861648208612D9197A2811
:1000F00086117B28861559197F2806118028061538
:10010000D91884288610852886145918892806103D
:100110008A28061430188E2806168F28061286168E
:1001200048208612301C96284B2097284120080032
:100130008312031330105808D900582030140800D7
:0E014000831203132D088A002C088200080089
:10014E0083120313540803178D0083168C130C149B
:08015E0083120C08F0000800F8
:10016600C528803083120313D400D828C030D400A9
:10017600D8289430D400D828D430D400D828803059
:10018600D400D828831203135408013A0319B4285B
:100196005408023A0319B9285408033A0319BC282B
:1001A6005408043A0319BF28C2285503F00054081E
:1001B600F0077008D4007008D90058203010D70115
:1001C60057085607840000080319F12857085607F0
:1001D60084000008D8009820D70AE32830140800C5
:1001E60083120313F8010830FC00700DF80D740833
:1001F600F80203180029F8070310F00DFC0BF82885
:020206000800EE
:10020800831603178C1C0A29000004298312031380
:10021800540803178D000313550803178C00831621
:100228008C130C150B08F0008B1355308D00AA3079
:100238008D008C14F01B22298B1323298B170C118A
:020248000800AC
:10024A00A0208A110A128000840AAC0A0319AD0A96
:08025A00F003031D2529080033
:1002620083160313861206120610861006118611D3
:1002720083128612061286110611861006104B2072
:100282004B204B20861406148616482086124B20DB
:100292008616482086124B208616482086124B204E
:1002A20006108616482086124B2086164820861293
:1002B200861086158616482086124B208611061453
:1002C20086164820861206108616482086124B2073
:1002D20086164820861206148616482086124B205F
:1002E20006108616482086128615061586140614F0
:0C02F2008616482086124B2030140800AD
:1002FE00233083120313A100A2013030A30030304B
:10030E00A4003A30A5003030A6003030A7003A30B5
:10031E00A8003030A9003030AA00AB01FF308316A0
:10032E00870088018B170B178B16823081000530E2
:10033E00831281000330D400A72070080313B2008B
:10034E000230D400A72070080313B3000130D4008C
:10035E00A72070080313B400D401A720700803135C
:10036E00B10031210130D90058200C30D90058206D
:10037E0006302107D3000A30F4003208F000F320D3
:10038E003030F007530884007008800007302107D2
:10039E00D3000A30F4003208F000F3207808F000A1
:1003AE003030F007530884007008800003302107B6
:1003BE00D3000A30F4003308F000F3203030F00799
:1003CE00530884007008800004302107D3000A30DF
:1003DE00F4003308F000F3207808F0003030F00716
:1003EE0053088400700880002108D3000A30F400FE
:1003FE003408F000F3203030F00753088400700802
:10040E008000210AD3000A30F4003408F000F320F3
:10041E007808F0003030F007530884007008800030
:10042E000130D4000730D5002108D600B320071CB8
:10043E00212A2214871C242AA214071D272A2215DA
:10044E00871D2A2AA21507183A2A221C3A2A221098
:10045E00B20A3C303202031C352AB2010330D400FA
:10046E003208D50004218312031387184C2AA21CCC
:10047E004C2AA210B30A3C303302031C472AB301A4
:10048E000230D4003308D500042183120313071958
:10049E005E2A221D5E2A2211B40A18303402031C71
:1004AE00592AB4010130D4003408D5000421831236
:1004BE00031387196F2AA21D6F2AA211B10A0730E2
:1004CE003102031C6B2AB101D4013108D50004217D
:1004DE00DB2A023083120313D4000A30D5004430D5
:1004EE00B7004F30B8004D30B900BA013730D600E2
:1004FE00B320F92A0230D4000A30D5005330BB00A5
:10050E004530BC004730BD00BE013B30D600B320A5
:10051E00F92A0230D4000A30D5005430BF004530DD
:10052E00C0005230C100C2013F30D600B320F92ABC
:10053E000230D4000A30D5005130C3005530C4000B
:10054E004130C500C6014330D600B320F92A02302F
:10055E00D4000A30D5005130C7005530C80049309C
:10056E00C900CA014730D600B320F92A0230D400A0
:10057E000A30D5005330CB004530CC005830CD007A
:10058E00CE014B30D600B320F92A0230D4000A3007
:10059E00D5005330CF004130D0004230D100D201CF
:1005AE004F30D600B320F92A831203133108003AD4
:1005BE000319702A3108013A0319812A3108023AC7
:1005CE000319902A3108033A03199F2A3108043A75
:1005DE000319AE2A3108053A0319BD2A3108063A25
:0805EE000319CC2ABF29FA2AE7
:02400E004A2F37
:00000001FF
